{
  "_format": "hh-sol-artifact-1",
  "contractName": "Domains",
  "sourceName": "contracts/Domains.sol",
  "abi": [
    {
      "inputs": [
        {
          "internalType": "string",
          "name": "_tld",
          "type": "string"
        }
      ],
      "stateMutability": "payable",
      "type": "constructor"
    },
    {
      "inputs": [],
      "name": "AlreadyRegistered",
      "type": "error"
    },
    {
      "inputs": [
        {
          "internalType": "string",
          "name": "name",
          "type": "string"
        }
      ],
      "name": "InvalidName",
      "type": "error"
    },
    {
      "inputs": [],
      "name": "Unauthorized",
      "type": "error"
    },
    {
      "anonymous": false,
      "inputs": [
        {
          "indexed": true,
          "internalType": "address",
          "name": "owner",
          "type": "address"
        },
        {
          "indexed": true,
          "internalType": "address",
          "name": "approved",
          "type": "address"
        },
        {
          "indexed": true,
          "internalType": "uint256",
          "name": "tokenId",
          "type": "uint256"
        }
      ],
      "name": "Approval",
      "type": "event"
    },
    {
      "anonymous": false,
      "inputs": [
        {
          "indexed": true,
          "internalType": "address",
          "name": "owner",
          "type": "address"
        },
        {
          "indexed": true,
          "internalType": "address",
          "name": "operator",
          "type": "address"
        },
        {
          "indexed": false,
          "internalType": "bool",
          "name": "approved",
          "type": "bool"
        }
      ],
      "name": "ApprovalForAll",
      "type": "event"
    },
    {
      "anonymous": false,
      "inputs": [
        {
          "indexed": false,
          "internalType": "string",
          "name": "name",
          "type": "string"
        },
        {
          "indexed": false,
          "internalType": "address",
          "name": "newOwner",
          "type": "address"
        }
      ],
      "name": "Transfer",
      "type": "event"
    },
    {
      "anonymous": false,
      "inputs": [
        {
          "indexed": true,
          "internalType": "address",
          "name": "from",
          "type": "address"
        },
        {
          "indexed": true,
          "internalType": "address",
          "name": "to",
          "type": "address"
        },
        {
          "indexed": true,
          "internalType": "uint256",
          "name": "tokenId",
          "type": "uint256"
        }
      ],
      "name": "Transfer",
      "type": "event"
    },
    {
      "inputs": [
        {
          "internalType": "address",
          "name": "to",
          "type": "address"
        },
        {
          "internalType": "uint256",
          "name": "tokenId",
          "type": "uint256"
        }
      ],
      "name": "approve",
      "outputs": [],
      "stateMutability": "nonpayable",
      "type": "function"
    },
    {
      "inputs": [
        {
          "internalType": "address",
          "name": "owner",
          "type": "address"
        }
      ],
      "name": "balanceOf",
      "outputs": [
        {
          "internalType": "uint256",
          "name": "",
          "type": "uint256"
        }
      ],
      "stateMutability": "view",
      "type": "function"
    },
    {
      "inputs": [
        {
          "internalType": "string",
          "name": "name",
          "type": "string"
        }
      ],
      "name": "getAddress",
      "outputs": [
        {
          "internalType": "address",
          "name": "",
          "type": "address"
        }
      ],
      "stateMutability": "view",
      "type": "function"
    },
    {
      "inputs": [],
      "name": "getAllNames",
      "outputs": [
        {
          "internalType": "string[]",
          "name": "",
          "type": "string[]"
        }
      ],
      "stateMutability": "view",
      "type": "function"
    },
    {
      "inputs": [
        {
          "internalType": "uint256",
          "name": "tokenId",
          "type": "uint256"
        }
      ],
      "name": "getApproved",
      "outputs": [
        {
          "internalType": "address",
          "name": "",
          "type": "address"
        }
      ],
      "stateMutability": "view",
      "type": "function"
    },
    {
      "inputs": [
        {
          "internalType": "string",
          "name": "name",
          "type": "string"
        }
      ],
      "name": "getDomain",
      "outputs": [
        {
          "components": [
            {
              "internalType": "address",
              "name": "owner",
              "type": "address"
            },
            {
              "internalType": "string",
              "name": "name",
              "type": "string"
            },
            {
              "internalType": "string",
              "name": "image",
              "type": "string"
            },
            {
              "internalType": "string",
              "name": "avatar",
              "type": "string"
            }
          ],
          "internalType": "struct Domains.Domain",
          "name": "",
          "type": "tuple"
        }
      ],
      "stateMutability": "view",
      "type": "function"
    },
    {
      "inputs": [
        {
          "internalType": "address",
          "name": "owner",
          "type": "address"
        },
        {
          "internalType": "address",
          "name": "operator",
          "type": "address"
        }
      ],
      "name": "isApprovedForAll",
      "outputs": [
        {
          "internalType": "bool",
          "name": "",
          "type": "bool"
        }
      ],
      "stateMutability": "view",
      "type": "function"
    },
    {
      "inputs": [],
      "name": "isOwner",
      "outputs": [
        {
          "internalType": "bool",
          "name": "",
          "type": "bool"
        }
      ],
      "stateMutability": "view",
      "type": "function"
    },
    {
      "inputs": [],
      "name": "name",
      "outputs": [
        {
          "internalType": "string",
          "name": "",
          "type": "string"
        }
      ],
      "stateMutability": "view",
      "type": "function"
    },
    {
      "inputs": [
        {
          "internalType": "uint256",
          "name": "",
          "type": "uint256"
        }
      ],
      "name": "names",
      "outputs": [
        {
          "internalType": "string",
          "name": "",
          "type": "string"
        }
      ],
      "stateMutability": "view",
      "type": "function"
    },
    {
      "inputs": [],
      "name": "owner",
      "outputs": [
        {
          "internalType": "address payable",
          "name": "",
          "type": "address"
        }
      ],
      "stateMutability": "view",
      "type": "function"
    },
    {
      "inputs": [
        {
          "internalType": "uint256",
          "name": "tokenId",
          "type": "uint256"
        }
      ],
      "name": "ownerOf",
      "outputs": [
        {
          "internalType": "address",
          "name": "",
          "type": "address"
        }
      ],
      "stateMutability": "view",
      "type": "function"
    },
    {
      "inputs": [
        {
          "internalType": "string",
          "name": "name",
          "type": "string"
        }
      ],
      "name": "price",
      "outputs": [
        {
          "internalType": "uint256",
          "name": "",
          "type": "uint256"
        }
      ],
      "stateMutability": "pure",
      "type": "function"
    },
    {
      "inputs": [
        {
          "internalType": "string",
          "name": "name",
          "type": "string"
        }
      ],
      "name": "register",
      "outputs": [],
      "stateMutability": "payable",
      "type": "function"
    },
    {
      "inputs": [
        {
          "internalType": "address",
          "name": "from",
          "type": "address"
        },
        {
          "internalType": "address",
          "name": "to",
          "type": "address"
        },
        {
          "internalType": "uint256",
          "name": "tokenId",
          "type": "uint256"
        }
      ],
      "name": "safeTransferFrom",
      "outputs": [],
      "stateMutability": "nonpayable",
      "type": "function"
    },
    {
      "inputs": [
        {
          "internalType": "address",
          "name": "from",
          "type": "address"
        },
        {
          "internalType": "address",
          "name": "to",
          "type": "address"
        },
        {
          "internalType": "uint256",
          "name": "tokenId",
          "type": "uint256"
        },
        {
          "internalType": "bytes",
          "name": "data",
          "type": "bytes"
        }
      ],
      "name": "safeTransferFrom",
      "outputs": [],
      "stateMutability": "nonpayable",
      "type": "function"
    },
    {
      "inputs": [
        {
          "internalType": "address",
          "name": "operator",
          "type": "address"
        },
        {
          "internalType": "bool",
          "name": "approved",
          "type": "bool"
        }
      ],
      "name": "setApprovalForAll",
      "outputs": [],
      "stateMutability": "nonpayable",
      "type": "function"
    },
    {
      "inputs": [
        {
          "internalType": "string",
          "name": "_avatar",
          "type": "string"
        },
        {
          "internalType": "string",
          "name": "name",
          "type": "string"
        }
      ],
      "name": "setAvatar",
      "outputs": [],
      "stateMutability": "nonpayable",
      "type": "function"
    },
    {
      "inputs": [
        {
          "internalType": "address",
          "name": "_address",
          "type": "address"
        }
      ],
      "name": "setTreasuryAddress",
      "outputs": [],
      "stateMutability": "nonpayable",
      "type": "function"
    },
    {
      "inputs": [
        {
          "internalType": "bytes4",
          "name": "interfaceId",
          "type": "bytes4"
        }
      ],
      "name": "supportsInterface",
      "outputs": [
        {
          "internalType": "bool",
          "name": "",
          "type": "bool"
        }
      ],
      "stateMutability": "view",
      "type": "function"
    },
    {
      "inputs": [],
      "name": "symbol",
      "outputs": [
        {
          "internalType": "string",
          "name": "",
          "type": "string"
        }
      ],
      "stateMutability": "view",
      "type": "function"
    },
    {
      "inputs": [],
      "name": "tld",
      "outputs": [
        {
          "internalType": "string",
          "name": "",
          "type": "string"
        }
      ],
      "stateMutability": "view",
      "type": "function"
    },
    {
      "inputs": [
        {
          "internalType": "uint256",
          "name": "tokenId",
          "type": "uint256"
        }
      ],
      "name": "tokenURI",
      "outputs": [
        {
          "internalType": "string",
          "name": "",
          "type": "string"
        }
      ],
      "stateMutability": "view",
      "type": "function"
    },
    {
      "inputs": [
        {
          "internalType": "string",
          "name": "name",
          "type": "string"
        },
        {
          "internalType": "address",
          "name": "newOwner",
          "type": "address"
        }
      ],
      "name": "transfer",
      "outputs": [],
      "stateMutability": "nonpayable",
      "type": "function"
    },
    {
      "inputs": [
        {
          "internalType": "address",
          "name": "from",
          "type": "address"
        },
        {
          "internalType": "address",
          "name": "to",
          "type": "address"
        },
        {
          "internalType": "uint256",
          "name": "tokenId",
          "type": "uint256"
        }
      ],
      "name": "transferFrom",
      "outputs": [],
      "stateMutability": "nonpayable",
      "type": "function"
    },
    {
      "inputs": [],
      "name": "treasuryAddress",
      "outputs": [
        {
          "internalType": "address",
          "name": "",
          "type": "address"
        }
      ],
      "stateMutability": "view",
      "type": "function"
    },
    {
      "inputs": [
        {
          "internalType": "string",
          "name": "name",
          "type": "string"
        }
      ],
      "name": "valid",
      "outputs": [
        {
          "internalType": "bool",
          "name": "",
          "type": "bool"
        }
      ],
      "stateMutability": "pure",
      "type": "function"
    },
    {
      "inputs": [],
      "name": "withdraw",
      "outputs": [],
      "stateMutability": "nonpayable",
      "type": "function"
    }
  ],
  "bytecode": "0x60806040526040518061022001604052806101e18152602001620078ec6101e19139600a908162000031919062000419565b5060405180610e800160405280610e56815260200162006a96610e569139600b90816200005f919062000419565b5060405180611460016040528061142c81526020016200566a61142c9139600c90816200008d919062000419565b5060405162007acd38038062007acd8339818101604052810190620000b3919062000664565b6040518060400160405280601181526020017f43617264204e616d6520536572766963650000000000000000000000000000008152506040518060400160405280600381526020017f434e530000000000000000000000000000000000000000000000000000000000815250816000908162000130919062000419565b50806001908162000142919062000419565b50505033600760006101000a81548173ffffffffffffffffffffffffffffffffffffffff021916908373ffffffffffffffffffffffffffffffffffffffff160217905550806009908162000197919062000419565b5050620006b5565b600081519050919050565b7f4e487b7100000000000000000000000000000000000000000000000000000000600052604160045260246000fd5b7f4e487b7100000000000000000000000000000000000000000000000000000000600052602260045260246000fd5b600060028204905060018216806200022157607f821691505b602082108103620002375762000236620001d9565b5b50919050565b60008190508160005260206000209050919050565b60006020601f8301049050919050565b600082821b905092915050565b600060088302620002a17fffffffffffffffffffffffffffffffffffffffffffffffffffffffffffffffff8262000262565b620002ad868362000262565b95508019841693508086168417925050509392505050565b6000819050919050565b6000819050919050565b6000620002fa620002f4620002ee84620002c5565b620002cf565b620002c5565b9050919050565b6000819050919050565b6200031683620002d9565b6200032e620003258262000301565b8484546200026f565b825550505050565b600090565b6200034562000336565b620003528184846200030b565b505050565b5b818110156200037a576200036e6000826200033b565b60018101905062000358565b5050565b601f821115620003c95762000393816200023d565b6200039e8462000252565b81016020851015620003ae578190505b620003c6620003bd8562000252565b83018262000357565b50505b505050565b600082821c905092915050565b6000620003ee60001984600802620003ce565b1980831691505092915050565b6000620004098383620003db565b9150826002028217905092915050565b62000424826200019f565b67ffffffffffffffff81111562000440576200043f620001aa565b5b6200044c825462000208565b620004598282856200037e565b600060209050601f8311600181146200049157600084156200047c578287015190505b620004888582620003fb565b865550620004f8565b601f198416620004a1866200023d565b60005b82811015620004cb57848901518255600182019150602085019450602081019050620004a4565b86831015620004eb5784890151620004e7601f891682620003db565b8355505b6001600288020188555050505b505050505050565b6000604051905090565b600080fd5b600080fd5b600080fd5b600080fd5b6000601f19601f8301169050919050565b6200053a826200051e565b810181811067ffffffffffffffff821117156200055c576200055b620001aa565b5b80604052505050565b60006200057162000500565b90506200057f82826200052f565b919050565b600067ffffffffffffffff821115620005a257620005a1620001aa565b5b620005ad826200051e565b9050602081019050919050565b60005b83811015620005da578082015181840152602081019050620005bd565b60008484015250505050565b6000620005fd620005f78462000584565b62000565565b9050828152602081018484840111156200061c576200061b62000519565b5b62000629848285620005ba565b509392505050565b600082601f83011262000649576200064862000514565b5b81516200065b848260208601620005e6565b91505092915050565b6000602082840312156200067d576200067c6200050a565b5b600082015167ffffffffffffffff8111156200069e576200069d6200050f565b5b620006ac8482850162000631565b91505092915050565b614fa580620006c56000396000f3fe6080604052600436106101b75760003560e01c806395d89b41116100ec578063d3189e061161008a578063f2c298be11610064578063f2c298be14610656578063fb825e5f14610672578063fbf58b3e1461069d578063fe2c6198146106c6576101b7565b8063d3189e06146105b3578063e985e9c5146105dc578063ecdd04da14610619576101b7565b8063b88d4fde116100c6578063b88d4fde146104e5578063bf40fac11461050e578063c5f956af1461054b578063c87b56dd14610576576101b7565b806395d89b41146104545780639791c0971461047f578063a22cb465146104bc576101b7565b806342842e0e116101595780636605bfda116101335780636605bfda1461039857806370a08231146103c15780638da5cb5b146103fe5780638f32d59b14610429576101b7565b806342842e0e146102f55780634622ab031461031e5780636352211e1461035b576101b7565b8063095ea7b311610195578063095ea7b31461026157806323b872dd1461028a5780632d551432146102b35780633ccfd60b146102de576101b7565b806301ffc9a7146101bc57806306fdde03146101f9578063081812fc14610224575b600080fd5b3480156101c857600080fd5b506101e360048036038101906101de91906130a8565b610703565b6040516101f091906130f0565b60405180910390f35b34801561020557600080fd5b5061020e6107e5565b60405161021b919061319b565b60405180910390f35b34801561023057600080fd5b5061024b600480360381019061024691906131f3565b610877565b6040516102589190613261565b60405180910390f35b34801561026d57600080fd5b50610288600480360381019061028391906132a8565b6108bd565b005b34801561029657600080fd5b506102b160048036038101906102ac91906132e8565b6109d4565b005b3480156102bf57600080fd5b506102c8610a34565b6040516102d5919061319b565b60405180910390f35b3480156102ea57600080fd5b506102f3610ac2565b005b34801561030157600080fd5b5061031c600480360381019061031791906132e8565b610b88565b005b34801561032a57600080fd5b50610345600480360381019061034091906131f3565b610ba8565b604051610352919061319b565b60405180910390f35b34801561036757600080fd5b50610382600480360381019061037d91906131f3565b610c48565b60405161038f9190613261565b60405180910390f35b3480156103a457600080fd5b506103bf60048036038101906103ba919061333b565b610cce565b005b3480156103cd57600080fd5b506103e860048036038101906103e3919061333b565b610d23565b6040516103f59190613377565b60405180910390f35b34801561040a57600080fd5b50610413610dda565b60405161042091906133b3565b60405180910390f35b34801561043557600080fd5b5061043e610e00565b60405161044b91906130f0565b60405180910390f35b34801561046057600080fd5b50610469610e58565b604051610476919061319b565b60405180910390f35b34801561048b57600080fd5b506104a660048036038101906104a19190613433565b610eea565b6040516104b391906130f0565b60405180910390f35b3480156104c857600080fd5b506104e360048036038101906104de91906134ac565b610f9e565b005b3480156104f157600080fd5b5061050c6004803603810190610507919061361c565b610fb4565b005b34801561051a57600080fd5b5061053560048036038101906105309190613433565b611016565b6040516105429190613261565b60405180910390f35b34801561055757600080fd5b50610560611064565b60405161056d9190613261565b60405180910390f35b34801561058257600080fd5b5061059d600480360381019061059891906131f3565b61108a565b6040516105aa919061319b565b60405180910390f35b3480156105bf57600080fd5b506105da60048036038101906105d59190613740565b61119c565b005b3480156105e857600080fd5b5061060360048036038101906105fe91906137b8565b6112a0565b60405161061091906130f0565b60405180910390f35b34801561062557600080fd5b50610640600480360381019061063b9190613433565b611334565b60405161064d91906138c2565b60405180910390f35b610670600480360381019061066b9190613433565b61157b565b005b34801561067e57600080fd5b50610687611a06565b60405161069491906139a6565b60405180910390f35b3480156106a957600080fd5b506106c460048036038101906106bf91906139c8565b611ae5565b005b3480156106d257600080fd5b506106ed60048036038101906106e89190613433565b611d7b565b6040516106fa9190613377565b60405180910390f35b60007f80ac58cd000000000000000000000000000000000000000000000000000000007bffffffffffffffffffffffffffffffffffffffffffffffffffffffff1916827bffffffffffffffffffffffffffffffffffffffffffffffffffffffff191614806107ce57507f5b5e139f000000000000000000000000000000000000000000000000000000007bffffffffffffffffffffffffffffffffffffffffffffffffffffffff1916827bffffffffffffffffffffffffffffffffffffffffffffffffffffffff1916145b806107de57506107dd82611e1f565b5b9050919050565b6060600080546107f490613a57565b80601f016020809104026020016040519081016040528092919081815260200182805461082090613a57565b801561086d5780601f106108425761010080835404028352916020019161086d565b820191906000526020600020905b81548152906001019060200180831161085057829003601f168201915b5050505050905090565b600061088282611e89565b6004600083815260200190815260200160002060009054906101000a900473ffffffffffffffffffffffffffffffffffffffff169050919050565b60006108c882610c48565b90508073ffffffffffffffffffffffffffffffffffffffff168373ffffffffffffffffffffffffffffffffffffffff1603610938576040517f08c379a000000000000000000000000000000000000000000000000000000000815260040161092f90613afa565b60405180910390fd5b8073ffffffffffffffffffffffffffffffffffffffff16610957611ed4565b73ffffffffffffffffffffffffffffffffffffffff161480610986575061098581610980611ed4565b6112a0565b5b6109c5576040517f08c379a00000000000000000000000000000000000000000000000000000000081526004016109bc90613b8c565b60405180910390fd5b6109cf8383611edc565b505050565b6109e56109df611ed4565b82611f95565b610a24576040517f08c379a0000000000000000000000000000000000000000000000000000000008152600401610a1b90613c1e565b60405180910390fd5b610a2f83838361202a565b505050565b60098054610a4190613a57565b80601f0160208091040260200160405190810160405280929190818152602001828054610a6d90613a57565b8015610aba5780601f10610a8f57610100808354040283529160200191610aba565b820191906000526020600020905b815481529060010190602001808311610a9d57829003601f168201915b505050505081565b610aca610e00565b610ad357600080fd5b600047905060003373ffffffffffffffffffffffffffffffffffffffff1682604051610afe90613c6f565b60006040518083038185875af1925050503d8060008114610b3b576040519150601f19603f3d011682016040523d82523d6000602084013e610b40565b606091505b5050905080610b84576040517f08c379a0000000000000000000000000000000000000000000000000000000008152600401610b7b90613cd0565b60405180910390fd5b5050565b610ba383838360405180602001604052806000815250610fb4565b505050565b600d6020528060005260406000206000915090508054610bc790613a57565b80601f0160208091040260200160405190810160405280929190818152602001828054610bf390613a57565b8015610c405780601f10610c1557610100808354040283529160200191610c40565b820191906000526020600020905b815481529060010190602001808311610c2357829003601f168201915b505050505081565b600080610c5483612323565b9050600073ffffffffffffffffffffffffffffffffffffffff168173ffffffffffffffffffffffffffffffffffffffff1603610cc5576040517f08c379a0000000000000000000000000000000000000000000000000000000008152600401610cbc90613d3c565b60405180910390fd5b80915050919050565b610cd6610e00565b610cdf57600080fd5b80600e60006101000a81548173ffffffffffffffffffffffffffffffffffffffff021916908373ffffffffffffffffffffffffffffffffffffffff16021790555050565b60008073ffffffffffffffffffffffffffffffffffffffff168273ffffffffffffffffffffffffffffffffffffffff1603610d93576040517f08c379a0000000000000000000000000000000000000000000000000000000008152600401610d8a90613dce565b60405180910390fd5b600360008373ffffffffffffffffffffffffffffffffffffffff1673ffffffffffffffffffffffffffffffffffffffff168152602001908152602001600020549050919050565b600760009054906101000a900473ffffffffffffffffffffffffffffffffffffffff1681565b6000600760009054906101000a900473ffffffffffffffffffffffffffffffffffffffff1673ffffffffffffffffffffffffffffffffffffffff163373ffffffffffffffffffffffffffffffffffffffff1614905090565b606060018054610e6790613a57565b80601f0160208091040260200160405190810160405280929190818152602001828054610e9390613a57565b8015610ee05780601f10610eb557610100808354040283529160200191610ee0565b820191906000526020600020905b815481529060010190602001808311610ec357829003601f168201915b5050505050905090565b60006003610f3b84848080601f016020809104026020016040519081016040528093929190818152602001838380828437600081840152601f19601f82011690508083019250505050505050612360565b10158015610f965750600a610f9384848080601f016020809104026020016040519081016040528093929190818152602001838380828437600081840152601f19601f82011690508083019250505050505050612360565b11155b905092915050565b610fb0610fa9611ed4565b8383612515565b5050565b610fc5610fbf611ed4565b83611f95565b611004576040517f08c379a0000000000000000000000000000000000000000000000000000000008152600401610ffb90613c1e565b60405180910390fd5b61101084848484612681565b50505050565b6000600f838360405161102a929190613e1e565b908152602001604051809103902060000160009054906101000a900473ffffffffffffffffffffffffffffffffffffffff16905092915050565b600e60009054906101000a900473ffffffffffffffffffffffffffffffffffffffff1681565b606061109582611e89565b60006006600084815260200190815260200160002080546110b590613a57565b80601f01602080910402602001604051908101604052809291908181526020018280546110e190613a57565b801561112e5780601f106111035761010080835404028352916020019161112e565b820191906000526020600020905b81548152906001019060200180831161111157829003601f168201915b50505050509050600061113f6126dd565b90506000815103611154578192505050611197565b600082511115611189578082604051602001611171929190613e68565b60405160208183030381529060405292505050611197565b611192846126f4565b925050505b919050565b600760009054906101000a900473ffffffffffffffffffffffffffffffffffffffff1673ffffffffffffffffffffffffffffffffffffffff16600f826040516111e59190613e8c565b908152602001604051809103902060000160009054906101000a900473ffffffffffffffffffffffffffffffffffffffff1673ffffffffffffffffffffffffffffffffffffffff161461126d576040517f08c379a000000000000000000000000000000000000000000000000000000000815260040161126490613f15565b60405180910390fd5b81600f8260405161127e9190613e8c565b9081526020016040518091039020600301908161129b91906140e1565b505050565b6000600560008473ffffffffffffffffffffffffffffffffffffffff1673ffffffffffffffffffffffffffffffffffffffff16815260200190815260200160002060008373ffffffffffffffffffffffffffffffffffffffff1673ffffffffffffffffffffffffffffffffffffffff16815260200190815260200160002060009054906101000a900460ff16905092915050565b61133c612ffe565b600f838360405161134e929190613e1e565b90815260200160405180910390206040518060800160405290816000820160009054906101000a900473ffffffffffffffffffffffffffffffffffffffff1673ffffffffffffffffffffffffffffffffffffffff1673ffffffffffffffffffffffffffffffffffffffff1681526020016001820180546113cd90613a57565b80601f01602080910402602001604051908101604052809291908181526020018280546113f990613a57565b80156114465780601f1061141b57610100808354040283529160200191611446565b820191906000526020600020905b81548152906001019060200180831161142957829003601f168201915b5050505050815260200160028201805461145f90613a57565b80601f016020809104026020016040519081016040528092919081815260200182805461148b90613a57565b80156114d85780601f106114ad576101008083540402835291602001916114d8565b820191906000526020600020905b8154815290600101906020018083116114bb57829003601f168201915b505050505081526020016003820180546114f190613a57565b80601f016020809104026020016040519081016040528092919081815260200182805461151d90613a57565b801561156a5780601f1061153f5761010080835404028352916020019161156a565b820191906000526020600020905b81548152906001019060200180831161154d57829003601f168201915b505050505081525050905092915050565b600073ffffffffffffffffffffffffffffffffffffffff16600f83836040516115a5929190613e1e565b908152602001604051809103902060000160009054906101000a900473ffffffffffffffffffffffffffffffffffffffff1673ffffffffffffffffffffffffffffffffffffffff16146115f757600080fd5b600073ffffffffffffffffffffffffffffffffffffffff16600f8383604051611621929190613e1e565b908152602001604051809103902060000160009054906101000a900473ffffffffffffffffffffffffffffffffffffffff1673ffffffffffffffffffffffffffffffffffffffff16146116a0576040517f3a81d6fc00000000000000000000000000000000000000000000000000000000815260040160405180910390fd5b6116aa8282610eea565b6116ed5781816040517f7f19f48d0000000000000000000000000000000000000000000000000000000081526004016116e49291906141e0565b60405180910390fd5b60006116f98383611d7b565b90508034101561173e576040517f08c379a000000000000000000000000000000000000000000000000000000000815260040161173590614250565b60405180910390fd5b6000838360096040516020016117569392919061433f565b60405160208183030381529060405290506000600a82600b60405160200161178093929190614370565b6040516020818303038152906040529050600061179d600861275c565b905060006117ee87878080601f016020809104026020016040519081016040528093929190818152602001838380828437600081840152601f19601f82011690508083019250505050505050612360565b905060006117fb8261276a565b905060006118338661180c87612838565b8460405160200161181f9392919061451d565b604051602081830303815290604052612838565b905060008160405160200161184891906145c6565b6040516020818303038152906040529050611863338661299b565b61186d85826129b9565b33600f8b8b604051611880929190613e1e565b908152602001604051809103902060000160006101000a81548173ffffffffffffffffffffffffffffffffffffffff021916908373ffffffffffffffffffffffffffffffffffffffff160217905550898960096040516020016118e59392919061433f565b604051602081830303815290604052600f8b8b604051611906929190613e1e565b9081526020016040518091039020600101908161192391906140e1565b5061192d86612838565b60405160200161193d9190614634565b604051602081830303815290604052600f8b8b60405161195e929190613e1e565b9081526020016040518091039020600201908161197b91906140e1565b50600c60405160200161198e9190614656565b604051602081830303815290604052600f8b8b6040516119af929190613e1e565b908152602001604051809103902060030190816119cc91906140e1565b508989600d600088815260200190815260200160002091826119ef929190614683565b506119fa6008612a26565b50505050505050505050565b60606000611a14600861275c565b67ffffffffffffffff811115611a2d57611a2c6134f1565b5b604051908082528060200260200182016040528015611a6057816020015b6060815260200190600190039081611a4b5790505b50905060005b611a70600861275c565b811015611add57600d60008281526020019081526020016000206009604051602001611a9d929190614753565b604051602081830303815290604052828281518110611abf57611abe614782565b5b60200260200101819052508080611ad5906147e0565b915050611a66565b508091505090565b82828080601f016020809104026020016040519081016040528093929190818152602001838380828437600081840152601f19601f82011690508083019250505050505050600760009054906101000a900473ffffffffffffffffffffffffffffffffffffffff1673ffffffffffffffffffffffffffffffffffffffff16600f82604051611b739190613e8c565b908152602001604051809103902060000160009054906101000a900473ffffffffffffffffffffffffffffffffffffffff1673ffffffffffffffffffffffffffffffffffffffff1614611bfb576040517f08c379a0000000000000000000000000000000000000000000000000000000008152600401611bf290614874565b60405180910390fd5b600073ffffffffffffffffffffffffffffffffffffffff168273ffffffffffffffffffffffffffffffffffffffff1603611c6a576040517f08c379a0000000000000000000000000000000000000000000000000000000008152600401611c6190614906565b60405180910390fd5b3073ffffffffffffffffffffffffffffffffffffffff168273ffffffffffffffffffffffffffffffffffffffff1603611cd8576040517f08c379a0000000000000000000000000000000000000000000000000000000008152600401611ccf90614998565b60405180910390fd5b81600f8585604051611ceb929190613e1e565b908152602001604051809103902060000160006101000a81548173ffffffffffffffffffffffffffffffffffffffff021916908373ffffffffffffffffffffffffffffffffffffffff1602179055507f46815c4638126732fc9962b66b3e95c3f56f59d662b3563767c9b7ac55d8a111848484604051611d6d939291906149b8565b60405180910390a150505050565b600080611dcb84848080601f016020809104026020016040519081016040528093929190818152602001838380828437600081840152601f19601f82011690508083019250505050505050612360565b905060008111611dda57600080fd5b60038103611df357670de0b6b3a7640000915050611e19565b60048103611e0c5767058d15e176280000915050611e19565b6702c68af0bb1400009150505b92915050565b60007f01ffc9a7000000000000000000000000000000000000000000000000000000007bffffffffffffffffffffffffffffffffffffffffffffffffffffffff1916827bffffffffffffffffffffffffffffffffffffffffffffffffffffffff1916149050919050565b611e9281612a3c565b611ed1576040517f08c379a0000000000000000000000000000000000000000000000000000000008152600401611ec890613d3c565b60405180910390fd5b50565b600033905090565b816004600083815260200190815260200160002060006101000a81548173ffffffffffffffffffffffffffffffffffffffff021916908373ffffffffffffffffffffffffffffffffffffffff160217905550808273ffffffffffffffffffffffffffffffffffffffff16611f4f83610c48565b73ffffffffffffffffffffffffffffffffffffffff167f8c5be1e5ebec7d5bd14f71427d1e84f3dd0314c0f7b2291e5b200ac8c7c3b92560405160405180910390a45050565b600080611fa183610c48565b90508073ffffffffffffffffffffffffffffffffffffffff168473ffffffffffffffffffffffffffffffffffffffff161480611fe35750611fe281856112a0565b5b8061202157508373ffffffffffffffffffffffffffffffffffffffff1661200984610877565b73ffffffffffffffffffffffffffffffffffffffff16145b91505092915050565b8273ffffffffffffffffffffffffffffffffffffffff1661204a82610c48565b73ffffffffffffffffffffffffffffffffffffffff16146120a0576040517f08c379a000000000000000000000000000000000000000000000000000000000815260040161209790614a5c565b60405180910390fd5b600073ffffffffffffffffffffffffffffffffffffffff168273ffffffffffffffffffffffffffffffffffffffff160361210f576040517f08c379a000000000000000000000000000000000000000000000000000000000815260040161210690614aee565b60405180910390fd5b61211c8383836001612a7d565b8273ffffffffffffffffffffffffffffffffffffffff1661213c82610c48565b73ffffffffffffffffffffffffffffffffffffffff1614612192576040517f08c379a000000000000000000000000000000000000000000000000000000000815260040161218990614a5c565b60405180910390fd5b6004600082815260200190815260200160002060006101000a81549073ffffffffffffffffffffffffffffffffffffffff02191690556001600360008573ffffffffffffffffffffffffffffffffffffffff1673ffffffffffffffffffffffffffffffffffffffff168152602001908152602001600020600082825403925050819055506001600360008473ffffffffffffffffffffffffffffffffffffffff1673ffffffffffffffffffffffffffffffffffffffff16815260200190815260200160002060008282540192505081905550816002600083815260200190815260200160002060006101000a81548173ffffffffffffffffffffffffffffffffffffffff021916908373ffffffffffffffffffffffffffffffffffffffff160217905550808273ffffffffffffffffffffffffffffffffffffffff168473ffffffffffffffffffffffffffffffffffffffff167fddf252ad1be2c89b69c2b068fc378daa952ba7f163c4a11628f55a4df523b3ef60405160405180910390a461231e8383836001612a83565b505050565b60006002600083815260200190815260200160002060009054906101000a900473ffffffffffffffffffffffffffffffffffffffff169050919050565b60008060008084519050600092505b8082101561250a57600085838151811061238c5761238b614782565b5b602001015160f81c60f81b9050608060f81b817effffffffffffffffffffffffffffffffffffffffffffffffffffffffffffff191610156123db576001836123d49190614b0e565b92506124f6565b60e060f81b817effffffffffffffffffffffffffffffffffffffffffffffffffffffffffffff1916101561241d576002836124169190614b0e565b92506124f5565b60f060f81b817effffffffffffffffffffffffffffffffffffffffffffffffffffffffffffff1916101561245f576003836124589190614b0e565b92506124f4565b60f8801b817effffffffffffffffffffffffffffffffffffffffffffffffffffffffffffff191610156124a0576004836124999190614b0e565b92506124f3565b60fc60f81b817effffffffffffffffffffffffffffffffffffffffffffffffffffffffffffff191610156124e2576005836124db9190614b0e565b92506124f2565b6006836124ef9190614b0e565b92505b5b5b5b5b508280612502906147e0565b93505061236f565b829350505050919050565b8173ffffffffffffffffffffffffffffffffffffffff168373ffffffffffffffffffffffffffffffffffffffff1603612583576040517f08c379a000000000000000000000000000000000000000000000000000000000815260040161257a90614b8e565b60405180910390fd5b80600560008573ffffffffffffffffffffffffffffffffffffffff1673ffffffffffffffffffffffffffffffffffffffff16815260200190815260200160002060008473ffffffffffffffffffffffffffffffffffffffff1673ffffffffffffffffffffffffffffffffffffffff16815260200190815260200160002060006101000a81548160ff0219169083151502179055508173ffffffffffffffffffffffffffffffffffffffff168373ffffffffffffffffffffffffffffffffffffffff167f17307eab39ab6107e8899845ad3d59bd9653f200f220920489ca2b5937696c318360405161267491906130f0565b60405180910390a3505050565b61268c84848461202a565b61269884848484612a89565b6126d7576040517f08c379a00000000000000000000000000000000000000000000000000000000081526004016126ce90614c20565b60405180910390fd5b50505050565b606060405180602001604052806000815250905090565b60606126ff82611e89565b60006127096126dd565b905060008151116127295760405180602001604052806000815250612754565b806127338461276a565b604051602001612744929190613e68565b6040516020818303038152906040525b915050919050565b600081600001549050919050565b60606000600161277984612c10565b01905060008167ffffffffffffffff811115612798576127976134f1565b5b6040519080825280601f01601f1916602001820160405280156127ca5781602001600182028036833780820191505090505b509050600082602001820190505b60011561282d578080600190039150507f3031323334353637383961626364656600000000000000000000000000000000600a86061a8153600a858161282157612820614c40565b5b049450600085036127d8575b819350505050919050565b6060600082510361285a57604051806020016040528060008152509050612996565b6000604051806060016040528060408152602001614f3060409139905060006003600285516128899190614b0e565b6128939190614c6f565b600461289f9190614ca0565b67ffffffffffffffff8111156128b8576128b76134f1565b5b6040519080825280601f01601f1916602001820160405280156128ea5781602001600182028036833780820191505090505b509050600182016020820185865187015b80821015612956576003820191508151603f8160121c168501518453600184019350603f81600c1c168501518453600184019350603f8160061c168501518453600184019350603f81168501518453600184019350506128fb565b505060038651066001811461297257600281146129855761298d565b603d6001830353603d600283035361298d565b603d60018303535b50505080925050505b919050565b6129b5828260405180602001604052806000815250612d63565b5050565b6129c282612a3c565b612a01576040517f08c379a00000000000000000000000000000000000000000000000000000000081526004016129f890614d54565b60405180910390fd5b80600660008481526020019081526020016000209081612a2191906140e1565b505050565b6001816000016000828254019250508190555050565b60008073ffffffffffffffffffffffffffffffffffffffff16612a5e83612323565b73ffffffffffffffffffffffffffffffffffffffff1614159050919050565b50505050565b50505050565b6000612aaa8473ffffffffffffffffffffffffffffffffffffffff16612dbe565b15612c03578373ffffffffffffffffffffffffffffffffffffffff1663150b7a02612ad3611ed4565b8786866040518563ffffffff1660e01b8152600401612af59493929190614dc9565b6020604051808303816000875af1925050508015612b3157506040513d601f19601f82011682018060405250810190612b2e9190614e2a565b60015b612bb3573d8060008114612b61576040519150601f19603f3d011682016040523d82523d6000602084013e612b66565b606091505b506000815103612bab576040517f08c379a0000000000000000000000000000000000000000000000000000000008152600401612ba290614c20565b60405180910390fd5b805181602001fd5b63150b7a0260e01b7bffffffffffffffffffffffffffffffffffffffffffffffffffffffff1916817bffffffffffffffffffffffffffffffffffffffffffffffffffffffff191614915050612c08565b600190505b949350505050565b600080600090507a184f03e93ff9f4daa797ed6e38ed64bf6a1f0100000000000000008310612c6e577a184f03e93ff9f4daa797ed6e38ed64bf6a1f0100000000000000008381612c6457612c63614c40565b5b0492506040810190505b6d04ee2d6d415b85acef81000000008310612cab576d04ee2d6d415b85acef81000000008381612ca157612ca0614c40565b5b0492506020810190505b662386f26fc100008310612cda57662386f26fc100008381612cd057612ccf614c40565b5b0492506010810190505b6305f5e1008310612d03576305f5e1008381612cf957612cf8614c40565b5b0492506008810190505b6127108310612d28576127108381612d1e57612d1d614c40565b5b0492506004810190505b60648310612d4b5760648381612d4157612d40614c40565b5b0492506002810190505b600a8310612d5a576001810190505b80915050919050565b612d6d8383612de1565b612d7a6000848484612a89565b612db9576040517f08c379a0000000000000000000000000000000000000000000000000000000008152600401612db090614c20565b60405180910390fd5b505050565b6000808273ffffffffffffffffffffffffffffffffffffffff163b119050919050565b600073ffffffffffffffffffffffffffffffffffffffff168273ffffffffffffffffffffffffffffffffffffffff1603612e50576040517f08c379a0000000000000000000000000000000000000000000000000000000008152600401612e4790614ea3565b60405180910390fd5b612e5981612a3c565b15612e99576040517f08c379a0000000000000000000000000000000000000000000000000000000008152600401612e9090614f0f565b60405180910390fd5b612ea7600083836001612a7d565b612eb081612a3c565b15612ef0576040517f08c379a0000000000000000000000000000000000000000000000000000000008152600401612ee790614f0f565b60405180910390fd5b6001600360008473ffffffffffffffffffffffffffffffffffffffff1673ffffffffffffffffffffffffffffffffffffffff16815260200190815260200160002060008282540192505081905550816002600083815260200190815260200160002060006101000a81548173ffffffffffffffffffffffffffffffffffffffff021916908373ffffffffffffffffffffffffffffffffffffffff160217905550808273ffffffffffffffffffffffffffffffffffffffff16600073ffffffffffffffffffffffffffffffffffffffff167fddf252ad1be2c89b69c2b068fc378daa952ba7f163c4a11628f55a4df523b3ef60405160405180910390a4612ffa600083836001612a83565b5050565b6040518060800160405280600073ffffffffffffffffffffffffffffffffffffffff1681526020016060815260200160608152602001606081525090565b6000604051905090565b600080fd5b600080fd5b60007fffffffff0000000000000000000000000000000000000000000000000000000082169050919050565b61308581613050565b811461309057600080fd5b50565b6000813590506130a28161307c565b92915050565b6000602082840312156130be576130bd613046565b5b60006130cc84828501613093565b91505092915050565b60008115159050919050565b6130ea816130d5565b82525050565b600060208201905061310560008301846130e1565b92915050565b600081519050919050565b600082825260208201905092915050565b60005b8381101561314557808201518184015260208101905061312a565b60008484015250505050565b6000601f19601f8301169050919050565b600061316d8261310b565b6131778185613116565b9350613187818560208601613127565b61319081613151565b840191505092915050565b600060208201905081810360008301526131b58184613162565b905092915050565b6000819050919050565b6131d0816131bd565b81146131db57600080fd5b50565b6000813590506131ed816131c7565b92915050565b60006020828403121561320957613208613046565b5b6000613217848285016131de565b91505092915050565b600073ffffffffffffffffffffffffffffffffffffffff82169050919050565b600061324b82613220565b9050919050565b61325b81613240565b82525050565b60006020820190506132766000830184613252565b92915050565b61328581613240565b811461329057600080fd5b50565b6000813590506132a28161327c565b92915050565b600080604083850312156132bf576132be613046565b5b60006132cd85828601613293565b92505060206132de858286016131de565b9150509250929050565b60008060006060848603121561330157613300613046565b5b600061330f86828701613293565b935050602061332086828701613293565b9250506040613331868287016131de565b9150509250925092565b60006020828403121561335157613350613046565b5b600061335f84828501613293565b91505092915050565b613371816131bd565b82525050565b600060208201905061338c6000830184613368565b92915050565b600061339d82613220565b9050919050565b6133ad81613392565b82525050565b60006020820190506133c860008301846133a4565b92915050565b600080fd5b600080fd5b600080fd5b60008083601f8401126133f3576133f26133ce565b5b8235905067ffffffffffffffff8111156134105761340f6133d3565b5b60208301915083600182028301111561342c5761342b6133d8565b5b9250929050565b6000806020838503121561344a57613449613046565b5b600083013567ffffffffffffffff8111156134685761346761304b565b5b613474858286016133dd565b92509250509250929050565b613489816130d5565b811461349457600080fd5b50565b6000813590506134a681613480565b92915050565b600080604083850312156134c3576134c2613046565b5b60006134d185828601613293565b92505060206134e285828601613497565b9150509250929050565b600080fd5b7f4e487b7100000000000000000000000000000000000000000000000000000000600052604160045260246000fd5b61352982613151565b810181811067ffffffffffffffff82111715613548576135476134f1565b5b80604052505050565b600061355b61303c565b90506135678282613520565b919050565b600067ffffffffffffffff821115613587576135866134f1565b5b61359082613151565b9050602081019050919050565b82818337600083830152505050565b60006135bf6135ba8461356c565b613551565b9050828152602081018484840111156135db576135da6134ec565b5b6135e684828561359d565b509392505050565b600082601f830112613603576136026133ce565b5b81356136138482602086016135ac565b91505092915050565b6000806000806080858703121561363657613635613046565b5b600061364487828801613293565b945050602061365587828801613293565b9350506040613666878288016131de565b925050606085013567ffffffffffffffff8111156136875761368661304b565b5b613693878288016135ee565b91505092959194509250565b600067ffffffffffffffff8211156136ba576136b96134f1565b5b6136c382613151565b9050602081019050919050565b60006136e36136de8461369f565b613551565b9050828152602081018484840111156136ff576136fe6134ec565b5b61370a84828561359d565b509392505050565b600082601f830112613727576137266133ce565b5b81356137378482602086016136d0565b91505092915050565b6000806040838503121561375757613756613046565b5b600083013567ffffffffffffffff8111156137755761377461304b565b5b61378185828601613712565b925050602083013567ffffffffffffffff8111156137a2576137a161304b565b5b6137ae85828601613712565b9150509250929050565b600080604083850312156137cf576137ce613046565b5b60006137dd85828601613293565b92505060206137ee85828601613293565b9150509250929050565b61380181613240565b82525050565b600082825260208201905092915050565b60006138238261310b565b61382d8185613807565b935061383d818560208601613127565b61384681613151565b840191505092915050565b600060808301600083015161386960008601826137f8565b50602083015184820360208601526138818282613818565b9150506040830151848203604086015261389b8282613818565b915050606083015184820360608601526138b58282613818565b9150508091505092915050565b600060208201905081810360008301526138dc8184613851565b905092915050565b600081519050919050565b600082825260208201905092915050565b6000819050602082019050919050565b600061391c8383613818565b905092915050565b6000602082019050919050565b600061393c826138e4565b61394681856138ef565b93508360208202850161395885613900565b8060005b8581101561399457848403895281516139758582613910565b945061398083613924565b925060208a0199505060018101905061395c565b50829750879550505050505092915050565b600060208201905081810360008301526139c08184613931565b905092915050565b6000806000604084860312156139e1576139e0613046565b5b600084013567ffffffffffffffff8111156139ff576139fe61304b565b5b613a0b868287016133dd565b93509350506020613a1e86828701613293565b9150509250925092565b7f4e487b7100000000000000000000000000000000000000000000000000000000600052602260045260246000fd5b60006002820490506001821680613a6f57607f821691505b602082108103613a8257613a81613a28565b5b50919050565b7f4552433732313a20617070726f76616c20746f2063757272656e74206f776e6560008201527f7200000000000000000000000000000000000000000000000000000000000000602082015250565b6000613ae4602183613116565b9150613aef82613a88565b604082019050919050565b60006020820190508181036000830152613b1381613ad7565b9050919050565b7f4552433732313a20617070726f76652063616c6c6572206973206e6f7420746f60008201527f6b656e206f776e6572206f7220617070726f76656420666f7220616c6c000000602082015250565b6000613b76603d83613116565b9150613b8182613b1a565b604082019050919050565b60006020820190508181036000830152613ba581613b69565b9050919050565b7f4552433732313a2063616c6c6572206973206e6f7420746f6b656e206f776e6560008201527f72206f7220617070726f76656400000000000000000000000000000000000000602082015250565b6000613c08602d83613116565b9150613c1382613bac565b604082019050919050565b60006020820190508181036000830152613c3781613bfb565b9050919050565b600081905092915050565b50565b6000613c59600083613c3e565b9150613c6482613c49565b600082019050919050565b6000613c7a82613c4c565b9150819050919050565b7f4661696c656420746f207769746864726177204d617469630000000000000000600082015250565b6000613cba601883613116565b9150613cc582613c84565b602082019050919050565b60006020820190508181036000830152613ce981613cad565b9050919050565b7f4552433732313a20696e76616c696420746f6b656e2049440000000000000000600082015250565b6000613d26601883613116565b9150613d3182613cf0565b602082019050919050565b60006020820190508181036000830152613d5581613d19565b9050919050565b7f4552433732313a2061646472657373207a65726f206973206e6f74206120766160008201527f6c6964206f776e65720000000000000000000000000000000000000000000000602082015250565b6000613db8602983613116565b9150613dc382613d5c565b604082019050919050565b60006020820190508181036000830152613de781613dab565b9050919050565b600081905092915050565b6000613e058385613dee565b9350613e1283858461359d565b82840190509392505050565b6000613e2b828486613df9565b91508190509392505050565b6000613e428261310b565b613e4c8185613dee565b9350613e5c818560208601613127565b80840191505092915050565b6000613e748285613e37565b9150613e808284613e37565b91508190509392505050565b6000613e988284613e37565b915081905092915050565b7f596f752063616e2774207365742074686520617661746172206265636175736560008201527f2069742773206e6f7420796f7572730000000000000000000000000000000000602082015250565b6000613eff602f83613116565b9150613f0a82613ea3565b604082019050919050565b60006020820190508181036000830152613f2e81613ef2565b9050919050565b60008190508160005260206000209050919050565b60006020601f8301049050919050565b600082821b905092915050565b600060088302613f977fffffffffffffffffffffffffffffffffffffffffffffffffffffffffffffffff82613f5a565b613fa18683613f5a565b95508019841693508086168417925050509392505050565b6000819050919050565b6000613fde613fd9613fd4846131bd565b613fb9565b6131bd565b9050919050565b6000819050919050565b613ff883613fc3565b61400c61400482613fe5565b848454613f67565b825550505050565b600090565b614021614014565b61402c818484613fef565b505050565b5b8181101561405057614045600082614019565b600181019050614032565b5050565b601f8211156140955761406681613f35565b61406f84613f4a565b8101602085101561407e578190505b61409261408a85613f4a565b830182614031565b50505b505050565b600082821c905092915050565b60006140b86000198460080261409a565b1980831691505092915050565b60006140d183836140a7565b9150826002028217905092915050565b6140ea8261310b565b67ffffffffffffffff811115614103576141026134f1565b5b61410d8254613a57565b614118828285614054565b600060209050601f83116001811461414b5760008415614139578287015190505b61414385826140c5565b8655506141ab565b601f19841661415986613f35565b60005b828110156141815784890151825560018201915060208501945060208101905061415c565b8683101561419e578489015161419a601f8916826140a7565b8355505b6001600288020188555050505b505050505050565b60006141bf8385613116565b93506141cc83858461359d565b6141d583613151565b840190509392505050565b600060208201905081810360008301526141fb8184866141b3565b90509392505050565b7f4e6f7420656e6f75676820546f6b656e20746f20707572636861736500000000600082015250565b600061423a601c83613116565b915061424582614204565b602082019050919050565b600060208201905081810360008301526142698161422d565b9050919050565b7f2e00000000000000000000000000000000000000000000000000000000000000600082015250565b60006142a6600183613dee565b91506142b182614270565b600182019050919050565b600081546142c981613a57565b6142d38186613dee565b945060018216600081146142ee576001811461430357614336565b60ff1983168652811515820286019350614336565b61430c85613f35565b60005b8381101561432e5781548189015260018201915060208101905061430f565b838801955050505b50505092915050565b600061434c828587613df9565b915061435782614299565b915061436382846142bc565b9150819050949350505050565b600061437c82866142bc565b91506143888285613e37565b915061439482846142bc565b9150819050949350505050565b7f7b226e616d65223a202200000000000000000000000000000000000000000000600082015250565b60006143d7600a83613dee565b91506143e2826143a1565b600a82019050919050565b7f222c20226465736372697074696f6e223a20224120646f6d61696e206f6e207460008201527f68652043617264206e616d652073657276696365222c2022696d616765223a2060208201527f22646174613a696d6167652f7376672b786d6c3b6261736536342c0000000000604082015250565b600061446f605b83613dee565b915061447a826143ed565b605b82019050919050565b7f222c20226c656e677468223a2022000000000000000000000000000000000000600082015250565b60006144bb600e83613dee565b91506144c682614485565b600e82019050919050565b7f227d000000000000000000000000000000000000000000000000000000000000600082015250565b6000614507600283613dee565b9150614512826144d1565b600282019050919050565b6000614528826143ca565b91506145348286613e37565b915061453f82614462565b915061454b8285613e37565b9150614556826144ae565b91506145628284613e37565b915061456d826144fa565b9150819050949350505050565b7f646174613a6170706c69636174696f6e2f6a736f6e3b6261736536342c000000600082015250565b60006145b0601d83613dee565b91506145bb8261457a565b601d82019050919050565b60006145d1826145a3565b91506145dd8284613e37565b915081905092915050565b7f646174613a696d6167652f7376672b786d6c3b6261736536342c000000000000600082015250565b600061461e601a83613dee565b9150614629826145e8565b601a82019050919050565b600061463f82614611565b915061464b8284613e37565b915081905092915050565b600061466182614611565b915061466d82846142bc565b915081905092915050565b600082905092915050565b61468d8383614678565b67ffffffffffffffff8111156146a6576146a56134f1565b5b6146b08254613a57565b6146bb828285614054565b6000601f8311600181146146ea57600084156146d8578287013590505b6146e285826140c5565b86555061474a565b601f1984166146f886613f35565b60005b82811015614720578489013582556001820191506020850194506020810190506146fb565b8683101561473d5784890135614739601f8916826140a7565b8355505b6001600288020188555050505b50505050505050565b600061475f82856142bc565b915061476a82614299565b915061477682846142bc565b91508190509392505050565b7f4e487b7100000000000000000000000000000000000000000000000000000000600052603260045260246000fd5b7f4e487b7100000000000000000000000000000000000000000000000000000000600052601160045260246000fd5b60006147eb826131bd565b91507fffffffffffffffffffffffffffffffffffffffffffffffffffffffffffffffff820361481d5761481c6147b1565b5b600182019050919050565b7f596f7520617265206e6f742074686520646f6d61696e206f776e657200000000600082015250565b600061485e601c83613116565b915061486982614828565b602082019050919050565b6000602082019050818103600083015261488d81614851565b9050919050565b7f63616e6e6f7420736574206f776e657220746f20746865207a65726f2061646460008201527f7265737300000000000000000000000000000000000000000000000000000000602082015250565b60006148f0602483613116565b91506148fb82614894565b604082019050919050565b6000602082019050818103600083015261491f816148e3565b9050919050565b7f63616e6e6f7420736574206f776e657220746f2074686520726567697374727960008201527f2061646472657373000000000000000000000000000000000000000000000000602082015250565b6000614982602883613116565b915061498d82614926565b604082019050919050565b600060208201905081810360008301526149b181614975565b9050919050565b600060408201905081810360008301526149d38185876141b3565b90506149e26020830184613252565b949350505050565b7f4552433732313a207472616e736665722066726f6d20696e636f72726563742060008201527f6f776e6572000000000000000000000000000000000000000000000000000000602082015250565b6000614a46602583613116565b9150614a51826149ea565b604082019050919050565b60006020820190508181036000830152614a7581614a39565b9050919050565b7f4552433732313a207472616e7366657220746f20746865207a65726f2061646460008201527f7265737300000000000000000000000000000000000000000000000000000000602082015250565b6000614ad8602483613116565b9150614ae382614a7c565b604082019050919050565b60006020820190508181036000830152614b0781614acb565b9050919050565b6000614b19826131bd565b9150614b24836131bd565b9250828201905080821115614b3c57614b3b6147b1565b5b92915050565b7f4552433732313a20617070726f766520746f2063616c6c657200000000000000600082015250565b6000614b78601983613116565b9150614b8382614b42565b602082019050919050565b60006020820190508181036000830152614ba781614b6b565b9050919050565b7f4552433732313a207472616e7366657220746f206e6f6e20455243373231526560008201527f63656976657220696d706c656d656e7465720000000000000000000000000000602082015250565b6000614c0a603283613116565b9150614c1582614bae565b604082019050919050565b60006020820190508181036000830152614c3981614bfd565b9050919050565b7f4e487b7100000000000000000000000000000000000000000000000000000000600052601260045260246000fd5b6000614c7a826131bd565b9150614c85836131bd565b925082614c9557614c94614c40565b5b828204905092915050565b6000614cab826131bd565b9150614cb6836131bd565b9250828202614cc4816131bd565b91508282048414831517614cdb57614cda6147b1565b5b5092915050565b7f45524337323155524953746f726167653a2055524920736574206f66206e6f6e60008201527f6578697374656e7420746f6b656e000000000000000000000000000000000000602082015250565b6000614d3e602e83613116565b9150614d4982614ce2565b604082019050919050565b60006020820190508181036000830152614d6d81614d31565b9050919050565b600081519050919050565b600082825260208201905092915050565b6000614d9b82614d74565b614da58185614d7f565b9350614db5818560208601613127565b614dbe81613151565b840191505092915050565b6000608082019050614dde6000830187613252565b614deb6020830186613252565b614df86040830185613368565b8181036060830152614e0a8184614d90565b905095945050505050565b600081519050614e248161307c565b92915050565b600060208284031215614e4057614e3f613046565b5b6000614e4e84828501614e15565b91505092915050565b7f4552433732313a206d696e7420746f20746865207a65726f2061646472657373600082015250565b6000614e8d602083613116565b9150614e9882614e57565b602082019050919050565b60006020820190508181036000830152614ebc81614e80565b9050919050565b7f4552433732313a20746f6b656e20616c7265616479206d696e74656400000000600082015250565b6000614ef9601c83613116565b9150614f0482614ec3565b602082019050919050565b60006020820190508181036000830152614f2881614eec565b905091905056fe4142434445464748494a4b4c4d4e4f505152535455565758595a6162636465666768696a6b6c6d6e6f707172737475767778797a303132333435363738392b2fa2646970667358221220386f8ed1476393bc4b63a61a281c8543d64eb772d40a3bfde8a0db08171a3fd664736f6c6343000812003350484e325a79423361575230614430694d546b334969426f5a576c6e61485139496a45354e794967646d6c6c64304a76654430694d434177494445354e7941784f54636949475a7062477739496d3576626d5569494868746247357a50534a6f644852774f693876643364334c6e637a4c6d39795a7938794d4441774c334e325a79496765473173626e4d3665477870626d7339496d6830644841364c79393364336375647a4d7562334a6e4c7a45354f546b7665477870626d736950676f38636d566a6443423361575230614430694d546b334969426f5a576c6e61485139496a45354e7949675a6d6c736244306964584a734b434e7759576c756444426662476c755a574679587a56664e436b694c7a344b50484a6c59335167654430694e6a4d6949486b39496a59334969423361575230614430694e7a41754d4455694947686c6157646f644430694e6a49754d444d6949475a7062477739496e56796243676a6347463064475679626a41704969382b436a786b5a575a7a50676f386347463064475679626942705a4430696347463064475679626a4169494842686448526c636d3544623235305a5735305657357064484d39496d3969616d566a64454a766457356b6157356e516d39344969423361575230614430694d534967614756705a32683050534978496a344b5048567a5a53423462476c75617a706f636d566d5053496a615731685a325577587a56664e43496764484a68626e4e6d62334a7450534a74595852796158676f4d4334774d4459314e546b7a4e434177494441674d4334774d4463304d4463304d5341744d4334774d44677a4e446731494441704969382b436a77766347463064475679626a344b50477870626d5668636b6479595752705a57353049476c6b50534a7759576c756444426662476c755a574679587a56664e43496765444539496a6b344c6a556949486b7850534977496942344d6a30694f5467754e53496765544939496a45354e7949675a334a685a476c6c626e5256626d6c30637a306964584e6c636c4e7759574e6c543235566332556950676f38633352766343427a644739774c574e76624739795053496a4d6a45784f5449314969382b436a787a644739774947396d5a6e4e6c644430694d534967633352766343316a62327876636a3069493046454d6a68475269496763335276634331766347466a61585235505349774c6a6b354969382b436a777662476c755a57467952334a685a476c6c626e512b436a78706257466e5a5342705a443069615731685a325577587a56664e43496764326c6b64476739496a45314e534967614756705a326830505349784d7a556949486873615735724f6d68795a575939496d526864474536615731685a3255766347356e4f324a68633255324e437870566b4a50556e63775330646e623046425155464f5531566f5256566e51554642536e4e425155464453454e4257554642515546435a464e30633046425155464457454a4a5631684e51554642633152425155464d525864465157317764316c42515546425156684f5531497753554679637a526a4e6c464251554642556d3552565446435155464465477033646a685a555656425155467059314e56556b4a57534764434e32517a6147526b637a4a4651575a33597a45324b7a45316257643551564a4b536e466e6556466b5455704c617a6852576e644d54455534553252525457394655314e5a643030305232524456564a515255646a51305a485a454e456258564d526b684951554668524463764e7a4e49536a6831615574435354686e615546425a3274525155464251554642515546425155464251554642515546425155464251554642515546425155464251554642515546425155464251554642515546424f45745259315658534663796256417a4f48527755484935654773765346527a63446331596b3433567a6b784b7a6c3164576f304e6b397462306c4b5a32784e4e7a56684e6e5250596e4179617a417a596d3177593256734c31527554476c4f57484a71634442724d4339695248686c6548427857464e5353474d354e575172626c45334f555a7a4f57704c51556f765a69744d4d6a6333596b35565156526963475a6d59584272626e5a69575841785658566a4d325674646a4659525739546431685a4e31423356485a3052303154593351764f574a4e546d4e72623051355a465a43636c646b6332466e4f445a304d55566c596e6f78626d6431636a4a364e465a5a6131704e546e7074516a685665553961546a63785433466f566e5661537a56325a6a564a51336f7a55327377566b684251546c494e485a58543052354d5870684c7a426d556974536147303062475a6f5356685a525442304e5667334e31686c617a553561456473614530784b306f794b334251655441774d33566a62475656575574564d4846584d46647a6344645263305a58656d6c6a6358524f4e3368334e5663785246705455555a32645564614e566c745257704d61464656566b70325a58467a526d31314d55394e62325a4d5a5574335a6b567261584a6e64473547536b5a685a544e6b637a6379546a6c58516b347a6545706c646a5a7254334255547a4659596a4a77636d517963307056636b78454e6d3148556b464d5679396f513239685333703554545a714f555a5a544535794c33684f576c5a736445737252314e344f566c4f556a4e5a4e305a47576c5a71546d35584d554a6b6455707751303072516b74476547786c5656677a4b3273354e6d4633566d493565476c6b5633567a4e6e525352444e74535752745133706151574d35656b6b305a446c5154456b344c7a6b765931704f536a6c554d564a4b52464d7a61555a475133566e4b3367304e48427a636c52566346637a63546c4e4e6c5130566d6b31636c497863444a4d566d526e4c32355865573533576c64584e6e463564454a4b547a6b775332704465484a5a5a56643165485269576d523161335133553278354d56597256314e7a4e5730304b334577656e5179516a46524e546b3252446733535670755a6c4e6b4b314d34616b31725a43744d557a6c49596d39524e53396c4c7a56435457786e633056524d30784f62314a734f466f3462474a4463475a714e6e4a7056303979593341796232746b53564a315530316d4d444e58633056744d3246744d316b33626d46424d5642754e6e7050613349775532527465556461546e5a474f473833544441725a32645261327830536d4e79576d4e6863585a3653334e5a5a4756515a455a734f5842356448466c6157787459545a786155525a5a455a55576e6f324d6a4179617a5a71564442726447706c536d7045523164465755355056484d314f574a54656b6c744e48707661544a4b555852785744644d51325a4e613356536145527a5432354c566d566a4d6e42684e584e35536d733559304e315a58497655565a43576e6f334e334d7a6454643661306779647a4a47655445785a477478646b397955315531554738785a544a7a55444e6d613239445a58524f4c7a6731656d31704f584d3155545a7a57585a735169745954325a5861304e4d5432565765586430513146324f454a32635546314e3352545331673257446c5364486c344f544172534752684e6d3969527a4a5156433978564578586143737a4e6e64784f4842495247566d646b70334e6e4d764b32517a576d645755544e68626d644d645535494d6d3949616b5a71626c4533614659315456646c4d3364314e6b51315644557a6147673364574e575a48564b5a6a4e47533251784d446c3151565a776432646a4f446461543142464d315a4d4b7a6450636d4e4e5a7a6b3564334a6f4d474a6953566c504e544e436158564652456c524e7a4e50656c466b656c4576523031744e6a5177655842765358527165486b78596d7735623052534d6b5a334d5570744f544252596c427263314e61626e5a4d634646784e45357152304a6e4e31464e64324a4362477372563039715931686a53486c6f4f456c75553164685655745051564a69554770754e3356614d564e5952566832555868346430683561314e6e61544a325446417a59325a51574539584d4739695930746c4d6b6334516c46595546704663303958566e4a614b324a56633052346431524c6248525852585a43526e526c56325a314e574e6a517a56705679394b557a4674527a5177634442565930466f4d6b394c4d455a4f4e45563064574a5552566459613046744e556f7a5744493063564a6e55304a4365554e4d597a527564486c504e58706951556f7253545a6f51585a6a62335651566d4e725654644256474933654563345231643462475668515649356430746c646d68455156564653456c4a644770524d315a6d596d5a595546593455486834593039785a466f7a4d546c77643031505156466951573430537a63725231707a537a4e764c3074475554423063465242627a5243526e4d324d476c4653326c32517a6c50616d6c4959586c72546b5279616c425a65474e4f5130786152556c765955564c53316c59593074756354527665574a4363537377525664346348705463444e5a4e7a4a42557a6c58544374695657526c55456c4f5a326b79644556304d3039764c32354c5744593351314e575654466a636d4a325a456c775a314d3461444d34563278766347684d574868554d33464c56457879596e56484b7a5a5a5a546333614764685343394c6147526b547a4e55546a4e4a64574d316446465555455a425a575a5462474e315a584e694d44677254555a36534339794d325a4e647a49795156457a635642455357747a57575a32576d38794d55497a566b3959636d307a646b3975636d5a6d4b3251344d306c7954484e4951544d3459556477645534324b306f34643031595930464e56484a33557a427362546b774c7a567765587054564739714f484d31575774545369395865444e75596e52734e6d56516145453065555a475558644d4f44464f4c316b7764586f33613030345179396e59586474535552714d6938304d6e56365a48704d636b354b593238315933566a4d6b633463456c504e4552344e6c465161476c534d487036566e4a69556e64324b7a4e4464464d31564663305457597252455a76556d77344f444661524531785969394363306474576e63314d574a794f553575525339684d4756444e444d335456683359574a755a334132543268315648564265484a43634731536457706d5455685a54576c7a5231706f526c41335a474e3053557430536c6442596e6c7554326777546b6c4e5355646b564456464b32784c567a677955314d78636e6859546e5250566e5a4a5230737255336b764d6c633463335a5354304d76546c42564d326b725a6d493164575a31616e6877656e5135546b464e646e467353324e73556d30334d6939744e6a6c345954423056314e36546c4a69517a685864456c68546e5276656a567556315a4d5744464d516e5a6f4c307459646a51304d57467554575a4c59305a5a5a4870324f453151646b34775547686e646d317352303932576b5678597a5a4f5a6b4e79566b684557584a61636e5130646c70786145517a4d545a4d4d4778745a5577794e45513362575176636d6b76636c49784c315a5055466435625446304f544271527a45764d6b356b64453977616c5a326458686a616a5a54614452436457464a536a4e49656b684f62305645646e6c474f5652445547497962546333616e6772617a6b78626d746a615338334e6939704f48597a52444e3361446c505546517a5a48706c4b7973354d6c706e4e6b3543636d6c6f646d706b5a544e596158684b6358465252475a5054697452596e526c616d783156453557623245324f555930626c52314b3259765647593554584231613163306557673055336f79527a6c59626d317a636c4a326158493556485a57634374744c7a5a3355316b355332395a523152354e6a565a4c325531656c5244645464536153744c6446567a54546c68567a4e78656e42324d477453596b64695a793833656e687755584a724b336855546d465555465631567a4a76544738345a57354c644663355a55565564445a696257316f656a465957575676636c5650526d4a69534535334d7a6c764d54644f644846424e6a684a4e47394962586f72546d45314e335668616e453053446b774e47393463484e445757524d616939576244524a6354564354544a424d6b5a425a464a615a546b3559564531563268435530523054577377566b77315a4756704e306c445743746e53323879646c6f344f573146626d6b314f576c495547356a636a4a58646a4576525770774f46526e557a4a7456334a35527a646a53314635625752364c316c77526d527956546877513074356348706857445572566b396a616d6733556e70494e7a5933646d46594f464a30547a64494d6e6c45545451786232466a536c4978516e5a69546c646a547a6c3553455251595574704f48424964326877616b6f344c335a6a5453395757585674554451354d445a444d48527a4d565a6864304d79636a4930656c6434516d64596432497a546d4a7864574a52516c45794c7a497861335a545a6d317353586c49596e523251305a464f544976595642506248525454556f7952474a434f476372636c5a335455737a596e4a7864305652626e526d4e47523265693835637a4172524546594f585a4a61324a6f644851795433564b646e706c4d577379626b5a4c626a4e6c656a6850596b3531624770564c335a77566a6c5051334a3454306842546b4a434e31684c4f44426152444a544e556c6c5456597a4d3170785457597a4d316c57626e524d646a525a5544524a626d4a424e6a684d546a4251546d6c314d545a6b626b4a6854445a6f636d466f654577334f574576593235754e3368794f444a4f566a463351564642515546425155464251554642515546425155464251554642515546425155464251554642515546425155464251554642515546425155464252554a434c33644b4e4664484e69737656485a51656b464251554642516b705356545646636d744b5a32646e505430694c7a344b5043396b5a575a7a50676f384c334e325a7a344b3c2f746578743e3c2f673e3c646566733e3c7061747465726e2069643d227061747465726e3022207061747465726e436f6e74656e74556e6974733d226f626a656374426f756e64696e67426f78222077696474683d223122206865696768743d2231223e3c75736520786c696e6b3a687265663d2223696d616765305f345f3222207472616e73666f726d3d226d617472697828302e30303635353933342030203020302e3030373430373431202d302e30303833343835203029222f3e3c2f7061747465726e3e3c6c696e6561724772616469656e742069643d227061696e74305f6c696e6561725f345f32222078313d2230222079313d2230222078323d22323730222079323d2232373022206772616469656e74556e6974733d227573657253706163654f6e557365223e3c73746f702073746f702d636f6c6f723d2223313931383138222f3e3c73746f70206f66667365743d2231222073746f702d636f6c6f723d2223414432384646222073746f702d6f7061636974793d22302e3939222f3e3c2f6c696e6561724772616469656e743e3c636c6970506174682069643d22636c6970305f345f32223e3c726563742077696474683d2232373022206865696768743d22323730222066696c6c3d227768697465222f3e3c2f636c6970506174683e3c696d6167652069643d22696d616765305f345f32222077696474683d2231353522206865696768743d223133352220786c696e6b3a687265663d22646174613a696d6167652f706e673b6261736536342c6956424f5277304b47676f414141414e5355684555674141414a734141414348434159414141414264537473414141414358424957584d41414173544141414c457745416d7077594141414141584e535230494172733463365141414141526e51553142414143786a777638595155414141696353555242564867423764336864647332454166776331362b31356d677941524a4a71677951644d4a4b6b38515a774c4c45385364514d6f45535359774d344764435552504547634346476443446d754c46484841416144372f3733484a3875694b42493867694141676b51414141414141414141414141414141414141414141414141414141414141414141414141414141414141414141384b516355574857326d5033387470507239786b2f485473703735624e375739312b3975756a34364f6d6f494a676c4d37356136744f6270326b3033626d7063656c2f546e4c694e58726a70306b302f6244786578707158535248633935642b6e5137394673396a4b414a2f662b4c323737624e5541546270666661706b6e766259703155756333656d763158456f53775859375077547674474d5363742f39624d4e636b6f4439645642725764736167383674314565627a316e677572327a3456596b5a4d4e7a6d423855794f5a4e37314f716856755a4b3576663549437a33536b305648414139483476574f4479317a612f3066522b52686d346c66684958594530743558373758656b353968476c684d312b4a322b70507930303375636c6555594b553071573057737037517346577a696371744e377877355731445a5351467675475a35596d456a4c685155564a76657173466d75314f4d6f664c654b7766456b697267746e464a46616533647337324e3957424e33784a6576366b4f70544f3158623270726432734a55724c44366d4752414c572f68436f614b7a794d366a3946594c4e722f784e5a566c744b2b47537839594e5233593746465a566a4e6e57314264754a70434d2b424b46786c655558332b6b3936617756623978696457757336745244336d49646d437a5a4163397a49346439504c49382f392f635a4e4a395431524a4453336946464375672b783434707372545570573371394d36543456693572523170324c5664672f6e57796e775a575736717974424a4f39304b6a437872596557757874625a64756b7437536c7931562b575373356d342b71307a7432423151353936443837495a6e6653642b53386a4d6b642b4c533948626f51352f652f35424d6c67734551334c4e6f526c385a386c624370666a367269574f726370326f6b64495275534d6630335773456d33616d3359376e614131506e367a4f6b723053646d79475a4e7646386f374c302b6767516b6c744a63725a636171767a4b735964655064466c397079747165696c6d6136716944596446545a7a363230326b366a54306b746a654a6a44475745594e4f5473353962537a496d347a6f69324a51747158374c43664d6b75526844734f6e4b5665633270613573794a6b3963437565722f5156425a7a3737733375377a6b4832773246793131646b71764f72535535506f316532735033666b6f4365744e2f38357a6d6939733551367359766c422b584f66576b434c4f65567977744351763842767141753774534b583658395274797839302b486461366f62473250542f71544c57682b33367771387048446566764a7736732f2b64335a67565133616e674c754e48326f486a466a6e51376856354d576533777536443554353368683775635664754a6633464b643130397541567077676338375a4f504533564c2b374f72634d67393977726830626249594f35334269754544495137334f7a51647a512f474d6d36343079706f49746a787931626c396f4452324677314a6d39305162506b73535a6e764c705171344e6a47426737514d7762426c6b2b574f6a63586348796838496e535761554b4f415262506a6e37755a3153584558765178787748796b53676932764c5033636650584f57306f62634b65324738425158505a45734f5756725a2b625573447877544b6c7457457642467465576675356363433569572f4a53316d473430703055634168324f4b30464e3445747562544557586b416d354a3358323471526753424279434c63346e74794f357a62414a2b4936684176636f755056636b5537415462377847384757786c6561415239774b65766844415545484949746a51335666626658505638507878634f71645a33313970774d4f415162416e344b372b475a734b336f2f4b465130747054416f34424673363069454b697643394f6a694861796b4e44726a505978634e434c5a45496f61454b4b5958634b6e71346f796242712b30455778707a537033593732415339574c2b6255646550494e676932744574334f6f2f6e4b583637435356553163726276644970675338683338576c6f70684c58785433714b544c726275472b3659653737686761482f4b6864644f33544e33497563357451545046416566536c637565736230382b4d467a482f7233664d773232415133715044496b735966765a6f32314233564f58726d33764f6e7266662b64383349724c7348413338614770754e362b4a38774d5863414d54727753306c6d39302f3570797a53546f6a387335596b534a2f5778336e62746c36655068413479464651774c38314e2f5930757a376b4d38432f6761776d49446a322f3432757a647a4c724e4a636f3563756332473870494f344478365150686952307a7a5672625277762b33437453355457344d662b44466f526c3838315a444d71622f4273476d5a7735316272394e6e452f613065433433374d587761626e6770364f6875547541787242706d52756a664d48594d6973475a68465037646374494b744a574162796e4f68304e494d4947645435452b6c4b5738325353317278584e744f567649474b2b53792f3257387376524f432f4e505533692b6662357566756a78707a74394e414d76716c4b636c526d37322f6d36397861307457537a4e52624338577449614e746f7a356e57564c58314c4276682f4b5876343431616e4d664b634659647a76384d50764e30506867766d6c474f765a457163364e66437256484459725a727434765a7168443331364c306c6d654c323444376d642f72692f7252312f564f5057796d317439306a47312f324e64744f706a56767578636a36536834427561494a33487a484e6f45447679463954435062326d37376a782b6b39316e6b63692f37362f6938763344337768394f505433647a652b2b39325a67364e42726968766a6465335869784a71715144664f4e2b516274656a6c75544e566f61363946346e54752b662f5466394d70756b5734796834537a324739586e6d73725276697239547656702b6d2f36775359394b6f594754793635592f65357a5443753752692b4b7455734d39615733717a7076306b52624762672f377a787051726b2b78544e615450557557326f4c6f38656e4b7457396545547436626d6d687a315859656f72554f466262484e7733396f31374e747141363849346f486d7a2b4e61353775616a7134483930346f7870734359644c6a2f566c34497135424d324132464164525a6539396151355768425344744d6b30564c35646569374943582b674b6f32765a38396d456e6935396948506e6372325776312f456a7038546753326d5772794737634b51796d647a2f5970466472553870434b79707a6158352b564f636a6837527a483736377661583852744f37483279444d34316f61634a52314276624e57634f3979484450614b693870487768706a4a382f76634d2f5659756d5034393036433074733156617743327232347a57784267587762334e62717562514251322f32316b7653666d6c49794862747643464539322f61504f6c74534d4a3244624238672b7256774d4b336272717745516e74663464767a2f3973302b4441583976496b62687474324f754a767a65316b326e464b6e33657a384f624e756c6a552f767056394f4372784f48414e424237584b38305a4432533549654d5633335a714d66333359566e744c7634595034496e624136384c4e30504e69753136646e42614c3668726168784c3739612f636e6e37787238324e5631774151414141414141414141414141414141414141414141414141414141414141414141414141414141414141414542422f774a345747362b2f5476507a4141414141424a52553545726b4a6767673d3d222f3e3c2f646566733e3c2f7376673e3c73766720786d6c6e733d22687474703a2f2f7777772e77332e6f72672f323030302f7376672220786d6c6e733a786c696e6b3d22687474703a2f2f7777772e77332e6f72672f313939392f786c696e6b222077696474683d2232373022206865696768743d22323730222076696577426f783d223020302032373020323730222066696c6c3d226e6f6e65223e3c6720636c69702d706174683d2275726c2823636c6970305f345f3229223e3c7061746820643d224d3020304832373056323730483056305a222066696c6c3d2275726c28237061696e74305f6c696e6561725f345f3229222f3e3c7265637420783d2232302220793d223234222077696474683d2237302e303522206865696768743d2236322e3033222066696c6c3d2275726c28237061747465726e3029222f3e3c7465787420783d2233322e352220793d223233312220666f6e742d73697a653d223237222066696c6c3d2223666666222066696c7465723d2275726c282341292220666f6e742d66616d696c793d22506c7573204a616b617274612053616e732c44656a6156752053616e732c4e6f746f20436f6c6f7220456d6f6a692c4170706c6520436f6c6f7220456d6f6a692c73616e732d73657269662220666f6e742d7765696768743d22626f6c64223e",
  "linkReferences": {},
  "deployedLinkReferences": {}
}